{
  "contractName": "Operate",
  "abi": [
    {
      "constant": true,
      "inputs": [
        {
          "name": "addrs",
          "type": "address[]"
        },
        {
          "name": "vals",
          "type": "uint256[]"
        }
      ],
      "name": "batchTransfer",
      "outputs": [
        {
          "name": "",
          "type": "bool"
        }
      ],
      "payable": false,
      "stateMutability": "view",
      "type": "function"
    },
    {
      "constant": true,
      "inputs": [
        {
          "name": "to",
          "type": "address"
        },
        {
          "name": "val",
          "type": "uint256"
        }
      ],
      "name": "transfer",
      "outputs": [
        {
          "name": "",
          "type": "bool"
        }
      ],
      "payable": false,
      "stateMutability": "view",
      "type": "function"
    },
    {
      "constant": false,
      "inputs": [],
      "name": "deposit",
      "outputs": [],
      "payable": true,
      "stateMutability": "payable",
      "type": "function"
    },
    {
      "inputs": [],
      "payable": false,
      "stateMutability": "nonpayable",
      "type": "constructor"
    },
    {
      "anonymous": false,
      "inputs": [
        {
          "indexed": false,
          "name": "to",
          "type": "address"
        },
        {
          "indexed": false,
          "name": "val",
          "type": "uint256"
        }
      ],
      "name": "Award",
      "type": "event"
    }
  ],
  "bytecode": "0x6060604052341561000f57600080fd5b336000806101000a81548173ffffffffffffffffffffffffffffffffffffffff021916908373ffffffffffffffffffffffffffffffffffffffff1602179055506104a78061005e6000396000f300606060405260043610610057576000357c0100000000000000000000000000000000000000000000000000000000900463ffffffff16806388d695b21461005c578063a9059cbb1461010e578063d0e30db014610168575b600080fd5b341561006757600080fd5b6100f460048080359060200190820180359060200190808060200260200160405190810160405280939291908181526020018383602002808284378201915050505050509190803590602001908201803590602001908080602002602001604051908101604052809392919081815260200183836020028082843782019150505050505091905050610172565b604051808215151515815260200191505060405180910390f35b341561011957600080fd5b61014e600480803573ffffffffffffffffffffffffffffffffffffffff16906020019091908035906020019091905050610338565b604051808215151515815260200191505060405180910390f35b610170610479565b005b60008060008060009054906101000a900473ffffffffffffffffffffffffffffffffffffffff1673ffffffffffffffffffffffffffffffffffffffff163373ffffffffffffffffffffffffffffffffffffffff161415156101d257600080fd5b600085511180156101e4575083518551145b15156101ef57600080fd5b600091505b845182101561032c57838281518110151561020b57fe5b90602001906020020151905060008111801561023e5750803073ffffffffffffffffffffffffffffffffffffffff163110155b151561024657fe5b848281518110151561025457fe5b9060200190602002015173ffffffffffffffffffffffffffffffffffffffff166108fc829081150290604051600060405180830381858888f19350505050151561029d57600080fd5b7f473edf73b107bf5d270ea55a7ea4ce98a1b5618dd196e00d5a48e101299b26d485838151811015156102cc57fe5b9060200190602002015182604051808373ffffffffffffffffffffffffffffffffffffffff1673ffffffffffffffffffffffffffffffffffffffff1681526020018281526020019250505060405180910390a181806001019250506101f4565b60019250505092915050565b60008060009054906101000a900473ffffffffffffffffffffffffffffffffffffffff1673ffffffffffffffffffffffffffffffffffffffff163373ffffffffffffffffffffffffffffffffffffffff1614151561039557600080fd5b6000821180156103bc5750813073ffffffffffffffffffffffffffffffffffffffff163110155b15156103c457fe5b8273ffffffffffffffffffffffffffffffffffffffff166108fc839081150290604051600060405180830381858888f19350505050151561040457600080fd5b7f473edf73b107bf5d270ea55a7ea4ce98a1b5618dd196e00d5a48e101299b26d48383604051808373ffffffffffffffffffffffffffffffffffffffff1673ffffffffffffffffffffffffffffffffffffffff1681526020018281526020019250505060405180910390a16001905092915050565b5600a165627a7a723058205fb39c49499010a26981f1a6be8277513c924d6944baa145319bce9a14432c490029",
  "source": "pragma solidity ^0.4.11;\nimport '../node_modules/zeppelin-solidity/contracts/math/SafeMath.sol';\n\ncontract Operate{\n\tusing SafeMath for uint256;\n\taddress private owner;\n\n\tevent Award(address to,uint256 val);\n\n\tfunction Operate(){\n\t\towner = msg.sender;\n\t}\n\n\t//call this function to deposit to this contract\n  \tfunction deposit() payable public{\n\n  \t}\n\n  \t\n  \tfunction transfer(address to, uint256 val) public view returns(bool) {\n\t    require (msg.sender==owner);//only contract owner can call this function\n\t    assert (val>0 && this.balance>=val);\n\t    to.transfer(val);\n\t    Award(to,val);\n\t    return true;\n  \t}\n\n  \tfunction batchTransfer(address[] addrs,uint256[] vals) public view returns(bool) {\n\t    require (msg.sender==owner);//only contract owner can call this function\n\t    require(addrs.length>0 && addrs.length==vals.length);\n\t    for(uint j=0;j<addrs.length;j++){\n\t      uint256 val = vals[j];\n\t      assert (val>0 && this.balance>=val);\n\t      addrs[j].transfer(val);\n\t      Award(addrs[j],val);\n\t    }\n\t    \n\t    return true;\n  \t}\n}",
  "sourcePath": "/home/lzj/mycoin/contracts/Operate.sol",
  "compiler": {
    "name": "solc",
    "version": "0.4.18+commit.9cf6e910.Emscripten.clang"
  },
  "schemaVersion": "1.0.1",
  "updatedAt": "2018-08-18T08:21:26.314Z"
}